:02000000802E50
:06000300512BC2A8215997
:06001300512BC2AA21805E
:1000300075800075900075A00075B00075811FD2A5
:10004000AF740F31B2743831B2748031B290025E45
:1000500031F75147748031B231EC748031B2900283
:100060006A31F731CC75100375900075A0FF7D04DF
:1000700074007900D30933B903FAF5358012317170
:1000800075811FE530B40004C2AA8004D2B3D2AA9D
:10009000A83575900075A0FF79FE7A007B008990E5
:1000A000E5A058B50009E923F90ABA04F180E15145
:1000B0002B1350030B80FA74038AF0A42B90028751
:1000C00093FCE5A058B500FA512BC004DDC27D04B5
:1000D00090029478007920E893FAE7B5024A08097B
:1000E000DDF57D0475811F75100374C031EC74C09B
:1000F00031B29002A731F7749031B29002B431F767
:10010000751505D2B2D2A8D2885116E51524303122
:10011000BF5147741031B2D515F15103749031ECD1
:1001200074C031ECC2A801907D0475811F74C03188
:10013000EC74C031B290029831F7514774C0D510B9
:100140000280020190B2B7514720B10280F7C2B7D6
:1001500075100374C031EC0190510374C031EC741C
:050160009031EC0530B8
:1001650031CCD2B3D2AAD28AE530017EB40A0B8053
:1001750000748031EC317E80FE3232C2A874803149
:10018500B290026A31F774C031EC749031EC1530DD
:1001950031CC74C031B29002C431F7511651475178
:1001A500475147510374C031ECD2AA017EC2B5C292
:1001B500B6F580D2B4C2B4512B22D2B5C2B6F58001
:1001C500D2B4C2B4512B2274D031EC74D031B29078
:1001D500027831F7E530B40A09743131BF74303132
:1001E500BF22243031BF2231B27810742031BFD8FC
:1001F500FC227800E893600531BF0880F7227F3242
:10020500D2B051345134C2B07E265134DEFCDFF019
:10021500227F32D2B0513451345134C2B07E25518F
:1002250034DEFCDFEE227E2D7FFFDFFEDEFA227557
:100235008910758B33758DFEC28FD28E308FFDC2BE
:100245008E227E14758901758A00758C4CC28DD2FB
:100255008C308DFDC28CDEEF2257656C636F6D654A
:100265002E2E2E2100342064696769742050617335
:10027500733F0050656F706C6520496E73696465E6
:100285003A003132333435363738392A30230031A4
:10029500323334496E636F727265637420706173B3
:1002A5007300436F727265637420706173730054D9
:1002B500696D6520746F20456E7465723A20005033
:0E02C5006C6561736520776169742E2E2E00C2
:00000001FF
